{
    "contractName": "Token",
    "abi": [
        {
            "inputs": [],
            "stateMutability": "nonpayable",
            "type": "constructor"
        },
        {
            "anonymous": false,
            "inputs": [
                {
                    "indexed": true,
                    "internalType": "address",
                    "name": "owner",
                    "type": "address"
                },
                {
                    "indexed": true,
                    "internalType": "address",
                    "name": "spender",
                    "type": "address"
                },
                {
                    "indexed": false,
                    "internalType": "uint256",
                    "name": "value",
                    "type": "uint256"
                }
            ],
            "name": "Approval",
            "type": "event"
        },
        {
            "anonymous": false,
            "inputs": [
                {
                    "indexed": true,
                    "internalType": "address",
                    "name": "from",
                    "type": "address"
                },
                {
                    "indexed": true,
                    "internalType": "address",
                    "name": "to",
                    "type": "address"
                },
                {
                    "indexed": false,
                    "internalType": "uint256",
                    "name": "value",
                    "type": "uint256"
                }
            ],
            "name": "Transfer",
            "type": "event"
        },
        {
            "inputs": [
                {
                    "internalType": "address",
                    "name": "",
                    "type": "address"
                },
                {
                    "internalType": "address",
                    "name": "",
                    "type": "address"
                }
            ],
            "name": "allowance",
            "outputs": [
                {
                    "internalType": "uint256",
                    "name": "",
                    "type": "uint256"
                }
            ],
            "stateMutability": "view",
            "type": "function"
        },
        {
            "inputs": [
                {
                    "internalType": "address",
                    "name": "spender",
                    "type": "address"
                },
                {
                    "internalType": "uint256",
                    "name": "value",
                    "type": "uint256"
                }
            ],
            "name": "approve",
            "outputs": [
                {
                    "internalType": "bool",
                    "name": "",
                    "type": "bool"
                }
            ],
            "stateMutability": "nonpayable",
            "type": "function"
        },
        {
            "inputs": [
                {
                    "internalType": "address",
                    "name": "owner",
                    "type": "address"
                }
            ],
            "name": "balanceOf",
            "outputs": [
                {
                    "internalType": "uint256",
                    "name": "",
                    "type": "uint256"
                }
            ],
            "stateMutability": "view",
            "type": "function"
        },
        {
            "inputs": [
                {
                    "internalType": "address",
                    "name": "",
                    "type": "address"
                }
            ],
            "name": "balances",
            "outputs": [
                {
                    "internalType": "uint256",
                    "name": "",
                    "type": "uint256"
                }
            ],
            "stateMutability": "view",
            "type": "function"
        },
        {
            "inputs": [],
            "name": "decimals",
            "outputs": [
                {
                    "internalType": "uint256",
                    "name": "",
                    "type": "uint256"
                }
            ],
            "stateMutability": "view",
            "type": "function"
        },
        {
            "inputs": [],
            "name": "name",
            "outputs": [
                {
                    "internalType": "string",
                    "name": "",
                    "type": "string"
                }
            ],
            "stateMutability": "view",
            "type": "function"
        },
        {
            "inputs": [],
            "name": "symbol",
            "outputs": [
                {
                    "internalType": "string",
                    "name": "",
                    "type": "string"
                }
            ],
            "stateMutability": "view",
            "type": "function"
        },
        {
            "inputs": [],
            "name": "totalSupply",
            "outputs": [
                {
                    "internalType": "uint256",
                    "name": "",
                    "type": "uint256"
                }
            ],
            "stateMutability": "view",
            "type": "function"
        },
        {
            "inputs": [
                {
                    "internalType": "address",
                    "name": "to",
                    "type": "address"
                },
                {
                    "internalType": "uint256",
                    "name": "value",
                    "type": "uint256"
                }
            ],
            "name": "transfer",
            "outputs": [
                {
                    "internalType": "bool",
                    "name": "",
                    "type": "bool"
                }
            ],
            "stateMutability": "nonpayable",
            "type": "function"
        },
        {
            "inputs": [
                {
                    "internalType": "address",
                    "name": "from",
                    "type": "address"
                },
                {
                    "internalType": "address",
                    "name": "to",
                    "type": "address"
                },
                {
                    "internalType": "uint256",
                    "name": "value",
                    "type": "uint256"
                }
            ],
            "name": "transferFrom",
            "outputs": [
                {
                    "internalType": "bool",
                    "name": "",
                    "type": "bool"
                }
            ],
            "stateMutability": "nonpayable",
            "type": "function"
        }
    ],
    "bytecode": "69021e19e0c9bab240000060025560c0604052600660808190526523b2b933b2b960d11b60a0908152610035916003919061008b565b506040805180820190915260038082526223a3a960e91b60209092019182526100609160049161008b565b50601260055534801561007257600080fd5b506002543360009081526020819052604090205561015f565b82805461009790610124565b90600052602060002090601f0160209004810192826100b957600085556100ff565b82601f106100d257805160ff19168380011785556100ff565b828001600101855582156100ff579182015b828111156100ff5782518255916020019190600101906100e4565b5061010b92915061010f565b5090565b5b8082111561010b5760008155600101610110565b600181811c9082168061013857607f821691505b6020821081141561015957634e487b7160e01b600052602260045260246000fd5b50919050565b6106e58061016e6000396000f3fe608060405234801561001057600080fd5b506004361061009e5760003560e01c8063313ce56711610066578063313ce5671461012e57806370a082311461013757806395d89b4114610160578063a9059cbb14610168578063dd62ed3e1461017b57600080fd5b806306fdde03146100a3578063095ea7b3146100c157806318160ddd146100e457806323b872dd146100fb57806327e235e31461010e575b600080fd5b6100ab6101a6565b6040516100b89190610503565b60405180910390f35b6100d46100cf366004610574565b610234565b60405190151581526020016100b8565b6100ed60025481565b6040519081526020016100b8565b6100d461010936600461059e565b6102a0565b6100ed61011c3660046105da565b60006020819052908152604090205481565b6100ed60055481565b6100ed6101453660046105da565b6001600160a01b031660009081526020819052604090205490565b6100ab610417565b6100d4610176366004610574565b610424565b6100ed6101893660046105fc565b600160209081526000928352604080842090915290825290205481565b600380546101b39061062f565b80601f01602080910402602001604051908101604052809291908181526020018280546101df9061062f565b801561022c5780601f106102015761010080835404028352916020019161022c565b820191906000526020600020905b81548152906001019060200180831161020f57829003601f168201915b505050505081565b3360008181526001602090815260408083206001600160a01b038716808552925280832085905551919290917f8c5be1e5ebec7d5bd14f71427d1e84f3dd0314c0f7b2291e5b200ac8c7c3b9259061028f9086815260200190565b60405180910390a350600192915050565b6001600160a01b0383166000908152602081905260408120548211156102fe5760405162461bcd60e51b815260206004820152600e60248201526d62616c616e636520746f206c6f7760901b60448201526064015b60405180910390fd5b6001600160a01b03841660009081526001602090815260408083203384529091529020548211156103645760405162461bcd60e51b815260206004820152601060248201526f616c6c6f77616e636520746f206c6f7760801b60448201526064016102f5565b6001600160a01b0383166000908152602081905260408120805484929061038c908490610680565b90915550506001600160a01b038416600090815260208190526040812080548492906103b9908490610698565b92505081905550826001600160a01b0316846001600160a01b03167fddf252ad1be2c89b69c2b068fc378daa952ba7f163c4a11628f55a4df523b3ef8460405161040591815260200190565b60405180910390a35060019392505050565b600480546101b39061062f565b336000908152602081905260408120548211156104755760405162461bcd60e51b815260206004820152600f60248201526e62616c616e636520746f6f206c6f7760881b60448201526064016102f5565b6001600160a01b0383166000908152602081905260408120805484929061049d908490610680565b909155505033600090815260208190526040812080548492906104c1908490610698565b90915550506040518281526001600160a01b0384169033907fddf252ad1be2c89b69c2b068fc378daa952ba7f163c4a11628f55a4df523b3ef9060200161028f565b600060208083528351808285015260005b8181101561053057858101830151858201604001528201610514565b81811115610542576000604083870101525b50601f01601f1916929092016040019392505050565b80356001600160a01b038116811461056f57600080fd5b919050565b6000806040838503121561058757600080fd5b61059083610558565b946020939093013593505050565b6000806000606084860312156105b357600080fd5b6105bc84610558565b92506105ca60208501610558565b9150604084013590509250925092565b6000602082840312156105ec57600080fd5b6105f582610558565b9392505050565b6000806040838503121561060f57600080fd5b61061883610558565b915061062660208401610558565b90509250929050565b600181811c9082168061064357607f821691505b6020821081141561066457634e487b7160e01b600052602260045260246000fd5b50919050565b634e487b7160e01b600052601160045260246000fd5b600082198211156106935761069361066a565b500190565b6000828210156106aa576106aa61066a565b50039056fea2646970667358221220ca9689859704bf55f2dc2c41edb545bd7fa16c4327387b520dba2814452d547a64736f6c634300080a0033",
    "sourcePath": "c:/Users/furkan/Projects/coin/remixbackup/.workspaces/default_workspace/Token.sol",
    "compiler": {
        "name": "solc",
        "version": "0.8.10+commit.fc410830"
    },
    "functionHashes": {
        "allowance(address,address)": "dd62ed3e",
        "approve(address,uint256)": "095ea7b3",
        "balanceOf(address)": "70a08231",
        "balances(address)": "27e235e3",
        "decimals()": "313ce567",
        "name()": "06fdde03",
        "symbol()": "95d89b41",
        "totalSupply()": "18160ddd",
        "transfer(address,uint256)": "a9059cbb",
        "transferFrom(address,address,uint256)": "23b872dd"
    },
    "gasEstimates": {
        "creation": {
            "codeDepositCost": "353000",
            "executionCost": "infinite",
            "totalCost": "infinite"
        },
        "external": {
            "allowance(address,address)": "infinite",
            "approve(address,uint256)": "24522",
            "balanceOf(address)": "2562",
            "balances(address)": "2611",
            "decimals()": "2295",
            "name()": "infinite",
            "symbol()": "infinite",
            "totalSupply()": "2340",
            "transfer(address,uint256)": "53260",
            "transferFrom(address,address,uint256)": "infinite"
        }
    }
}